:100000000EC015C014C013C012C011C010C00FC064
:100010000EC00DC00CC00BC00AC009C008C011241E
:100020001FBECFE5D2E0DEBFCDBF27D026C2E8CFCE
:10003000C19820E43FE148EC50E0FA013197F1F734
:1000400021503040D1F714C0C19A20EA3FE0FA01B4
:100050003197F1F721503040D1F7C19820EA3FE0C5
:10006000FA013197F1F721503040D1F7815002C0A9
:1000700048EC50E0181644F30895DF93CF930F92A5
:10008000CDB7DEB782E087BBFDD080E991E028ECF8
:1000900030E0F9013197F1F70197D9F780E061E09D
:1000A00041E025E264D0892B19F481E0C1DFFDCF66
:1000B000198280E061E041E09E012F5F3F4F85D0D3
:1000C000892B19F481E0B4DFFDCF8981853219F0E5
:1000D00081E0AEDFFDCF82E0ABDFFDCF1F93883044
:1000E0001CF020E030E00AC0182F106A1AD1812FCE
:1000F000FBD011D18823D1F721E030E0C9011F9155
:100100000895CF92DF92EF92FF920F931F93CF93B8
:10011000DF93F62EE42E690101341105E4F4DEDFED
:10012000892BC9F08F2DE0D0F6D08E2DDDD0F3D005
:10013000C0E0D0E009C0F601EC0FFD1F8081D4D0F3
:10014000EAD0882321F42196C017D107A4F3F6D072
:1001500021E030E002C020E030E0C901DF91CF9122
:100160001F910F91FF90EF90DF90CF9008950F9324
:100170001F93DF93CF930F92CDB7DEB729839E01F4
:100180002F5F3F4F01E010E0BCDF0F90CF91DF9178
:100190001F910F9108951F93CF93DF93182FEB01B9
:1001A00088301CF020E030E00BC0BBD0812F816A8A
:1001B0009BD0B1D09ED08883A2D0C0D021E030E0C7
:1001C000C901DF91CF911F9108951F93CF93DF93C2
:1001D000182FE90183DF892B19F420E030E004C0F7
:1001E000812FBE01D8DF9C01C901DF91CF911F9102
:1001F00008959F92AF92BF92CF92DF92EF92FF92BB
:100200000F931F93CF93DF93982ED62EC42E790190
:10021000580164DF892B19F420E030E026C08D2DD1
:1002200063D079D08C2D60D076D07BD0892D816A37
:100230005BD071D0C0E0D0E00150104007C059D071
:10024000F701EC0FFD1F808360D02196C017D10706
:10025000B4F34FD0EA0CFB1C0894E108F108F70155
:1002600080834DD06BD021E030E0C901DF91CF9188
:100270001F910F91FF90EF90DF90CF90BF90AF90C4
:100280009F90089587B3856087BB88B3856088BBDE
:100290008AE28DB98FEF8FB980EF8EB90895282F3C
:1002A000442311F0B99801C0B99A88E090E0861B08
:1002B000970B880F991F806F8EB92FB920E19BE2B1
:1002C000822F8A95F1F79DB9C29BFECF822F8A9526
:1002D000F1F79DB9769BF4CF80E18A95F1F78FB164
:1002E0009FEF9FB9B89A089568E070E040E0D7DFCB
:1002F000089580E068E070E041E0D1DF08958FEF7D
:1003000061E070E040E0CBDF089580E061E070E004
:1003100040E0C5DF089580E061E070E041E0BFDFCC
:100320000895C29AC29BFECF80E1982F9A95F1F76B
:10033000C0988A95F1F7C298C09A0895C098C29A59
:1003400088B380E1982F9A95F1F7C09A8A95F1F7D2
:100350000895CF92DF92EF92FF920F931F93CF9366
:10036000DF93182F062FEA01F22EDBDF812FBCDF8F
:10037000D2DF802FB9DFCFDFD4DF812F8160B4DF00
:10038000CADF00E010E0EF2CFF24E7FCF0946701E7
:100390000894C108D10808C0ACDFFE01E00FF11FCE
:1003A0008083B3DF0F5F1F4F0C151D05ACF3A1DF7A
:1003B000CE0DDF1D21978883A2DFC0DFDF91CF91B3
:1003C0001F910F91FF90EF90DF90CF900895AC01B7
:1003D0008CE361E322E0BDDF0895AC018CE363E0D0
:1003E00026E0B7DF0895AC0182E368E226E0B1DFE2
:1003F0000895FF920F931F93182F062FF42E91DF6D
:10040000812F72DF88DF802F6FDF85DF8F2D6CDF1C
:1004100082DF94DF1F910F91FF900895440F551FC5
:1004200054E0880F991F5A95E1F7482B220F331F8C
:10043000220F331F422B82E360E2DBDF08950F932C
:100440001F939B018A01220F331F220F331F9695A2
:10045000982F882797958795282B8CE360E0422F6B
:10046000C8DF75E0000F111F7A95E1F78CE360E0BB
:0E047000402FBFDF1F910F910895F894FFCF2A
:00000001FF
