:100000000EC015C014C013C012C011C010C00FC064
:100010000EC00DC00CC00BC00AC009C008C011241E
:100020001FBECFE5D2E0DEBFCDBF27D081C1E8CF74
:10003000C19820E43FE148EC50E0FA013197F1F734
:1000400021503040D1F714C0C19A20EA3FE0FA01B4
:100050003197F1F721503040D1F7C19820EA3FE0C5
:10006000FA013197F1F721503040D1F7815002C0A9
:1000700048EC50E0181644F30895DF93CF930F92A5
:10008000CDB7DEB782E087BBE8D080E061E041E039
:1000900025E264D0892B19F481E0CADFFDCF1982F3
:1000A00080E061E041E09E012F5F3F4F85D0892BCA
:1000B00019F481E0BDDFFDCF8981853219F081E03F
:1000C000B7DFFDCF82E0B4DFFDCF1F9388301CF097
:1000D00020E030E00AC0182F106A10D1812FF1D033
:1000E00007D18823D1F721E030E0C9011F9108959D
:1000F000CF92DF92EF92FF920F931F93CF93DF93F4
:10010000F62EE42E690101341105E4F4DEDF892BBB
:10011000C9F08F2DD6D0ECD08E2DD3D0E9D0C0E051
:10012000D0E009C0F601EC0FFD1F8081CAD0E0D0FD
:10013000882321F42196C017D107A4F3EDD021E044
:1001400030E002C020E030E0C901DF91CF911F9183
:100150000F91FF90EF90DF90CF9008950F931F9332
:10016000DF93CF930F92CDB7DEB729839E012F5F28
:100170003F4F01E010E0BCDF0F90CF91DF911F9166
:100180000F9108951F93CF93DF93182FEB018830C1
:100190001CF020E030E00BC0B1D0812F816A91D0FB
:1001A000A7D094D0888398D0B7D021E030E0C9019F
:1001B000DF91CF911F9108951F93CF93DF93182F55
:1001C000E90183DF892B19F420E030E004C0812F9E
:1001D000BE01D8DF9C01C901DF91CF911F91089525
:1001E000AF92BF92DF92EF92FF920F931F93CF9344
:1001F000DF93D82E7901580168DF892B19F420E0AC
:1002000030E020C07BD08D2D816A5BD071D0C0E002
:10021000D0E00150104007C059D0F701EC0FFD1F8E
:10022000808360D02196C017D107B4F34FD0EA0C79
:10023000FB1C0894E108F108F70180834DD06CD0D5
:1002400021E030E0C901DF91CF911F910F91FF9024
:10025000EF90DF90BF90AF90089587B3856087BB24
:1002600088B3856088BB8AE28DB98FEF8FB980EF44
:100270008EB90895282F442311F0B99801C0B99A76
:1002800088E090E0861B970B880F991F806F8EB9CE
:100290002FB920E137E24BE2C9010197F1F74DB9DF
:1002A000C29BFECFC9010197F1F74DB9769BF4CF00
:1002B00080E197E20197F1F78FB19FEF9FB9B89A6C
:1002C000089568E070E040E0D5DF089580E068E0E0
:1002D00070E041E0CFDF08958FEF61E070E040E033
:1002E000C9DF089580E061E070E040E0C3DF089579
:1002F00080E061E070E041E0BDDF0895C29AC29BFA
:10030000FECF80E197E2FC013197F1F7C0980197A9
:10031000F1F7C298C09A0895C098C29A88B380E154
:1003200097E2FC013197F1F7C09A0197F1F7089530
:04033000F894FFCF6F
:00000001FF
